:100000000C9454000C9471000C9471000C947100C9
:100010000C9471000C9471000C9471000C9471009C
:100020000C9471000C9471000C9471000C940004F9
:100030000C9471000C9471000C9471000C9471007C
:100040000C9471000C9471000C9471000C9471006C
:100050000C9471000C9471000C9471000C9471005C
:100060000C9471000C947100001F000000001F0030
:10007000001F101010101F00001F181818181F0064
:10008000001F1C1C1C1C1F00001F1E1E1E1E1F000C
:10009000001F1F1F1F1F1F0003070F1F0F07030055
:1000A000181C1E1F1E1C180011241FBECFEFD8E005
:1000B000DEBFCDBF11E0A0E0B1E0ECEEFAE002C09F
:1000C00005900D92A43BB107D9F721E0A4EBB1E074
:1000D00001C01D92A23CB207E1F70E9457050C94A3
:1000E00074050C94000065B1982F9074492F50E06E
:1000F00055954795559547955595479555954795E8
:10010000982F9078292F30E0022E232F000C221FE9
:10011000330B000C221F331F962F997F492B242B62
:1001200025B968B1982F9071492F50E055954795A2
:100130005595479555954795982F9072292F30E002
:10014000359527953595279535952795962F997F40
:10015000492B242B28B99BB192609BB99BB191602C
:100160009BB92AE62A95F1F700C09BB19E7F9BB907
:100170009BB19D7F9BB99AE69A95F1F700C065B156
:1001800020E1829FC0011124AC0140745527559590
:1001900047955595479555954795559547959C0194
:1001A00020783327022E232F000C221F330B000C44
:1001B000221F331F362F397F432B242B25B948B1FB
:1001C0009C012071332735952795359527953595D1
:1001D00027958072992795958795959587959595FB
:1001E0008795942F997F292B822B88B98BB18260B8
:1001F0008BB98BB181608BB98AE68A95F1F700C023
:100200008BB18E7F8BB98BB18D7F8BB99AE69A9526
:10021000F1F700C0089565B1982F9074492F50E010
:1002200055954795559547955595479555954795B6
:10023000982F9078292F30E0022E232F000C221FB8
:10024000330B000C221F331F962F997F492B242B31
:1002500025B968B1982F9071492F50E05595479571
:100260005595479555954795982F9072292F30E0D1
:10027000359527953595279535952795962F997F0F
:10028000492B242B28B99BB191609BB9EFECF7E087
:100290003197F1F700C000009BB19E7F9BB9EFEC56
:1002A000F7E03197F1F700C0000065B1F0E18F9FF2
:1002B000C0011124AC0140745527559547955595BB
:1002C000479555954795559547959C012078332737
:1002D000022E232F000C221F330B000C221F331F72
:1002E000362F397F432B242B25B948B19C0120712F
:1002F0003327359527953595279535952795807220
:100300009927959587959595879595958795942F98
:10031000997F292B822B88B98BB181608BB98FECA7
:1003200097E00197F1F700C000008BB18E7F8BB989
:10033000EFECF7E03197F1F700C00000089581E09D
:100340000E940B0108950F931F93CF93DF930097A3
:1003500069F0D62F8C01C0E007C0F801EC0FF11D49
:1003600080810E947300CF5FCD17B8F3DF91CF91EA
:100370001F910F910895623031F0633031F0613098
:1003800029F4805C03C08C5E01C08C5A80680E9496
:100390000B010895EF92FF920F931F93CF93DF937A
:1003A0007C01862F90E0880F991F880F991F880F76
:1003B000991F8064C0E0D0E00DC0F701EC0FFD1F75
:1003C000149101E0080F0E940B01812F0E9473001D
:1003D0002196802FC830D10580F3DF91CF911F91F6
:1003E0000F91FF90EF900895CF93DF938FE59AEEF2
:1003F0000197F1F700C0000085B1897F85B988B108
:10040000897F88B91BB884B1866084B987B186605A
:1004100087B98AB183608AB985B1897F85B988B186
:10042000866088B98BB181608BB98FEC97E00197BA
:10043000F1F700C000008BB18E7F8BB98FEC97E095
:100440000197F1F700C0000085B1897F85B988B1B7
:10045000866088B98BB181608BB98FEC97E001978A
:10046000F1F700C000008BB18E7F8BB98FEC97E065
:100470000197F1F700C0000085B1897F85B988B187
:10048000897F846088B98BB181608BB98FEC97E0EC
:100490000197F1F700C000008BB18E7F8BB98FEC14
:1004A00097E00197F1F700C0000088E20E940B017D
:1004B0008CE00E940B0160E0C0E00AC0D1E0D60FE2
:1004C0008C2F90E088599F4F0E94CA01C85F6D2F02
:1004D000C034A0F3DF91CF910895EBEBF1E01082EF
:1004E0001182128213821092BA011092B9011092F5
:1004F000B80185B18F7D85B988B18F7C88B981E0DD
:100500008093020108958091BA01843090F4EBEB5E
:10051000F1E0918190839281918393819283909174
:10052000B701905393838F5F8093BA0181E08093EA
:100530000201089585B1806285B988B1806188B96A
:1005400081E08093020108958091B8019091B901F2
:100550004E969093B9018093B8018037974130F05F
:100560008FE697E19093B9018093B80185B18062DD
:1005700085B988B1806188B981E0809302010895CE
:1005800085B18F7D85B988B1806188B981E080931C
:100590000201089585B18F7D85B988B18F7E88B9B4
:1005A0001092B60188B1806288B981E0809302011F
:1005B000089584B1806284B987B1806387B985B1B9
:1005C0008F7D85B988B18F7C88B984B1896184B900
:1005D0008AB180688AB985B1896185B98BB1806833
:1005E0008BB98AB1837C8AB98BB18C638BB90E9439
:1005F000F4010E949F01089584B1896184B98AB190
:1006000080688AB9E0E04DC085B1896185B98BB158
:1006100080688BB9E13051F028F0E23059F0E330D6
:1006200069F00FC085B18F7E85B90BC085B1877F1A
:1006300085B907C085B18E7F85B903C08BB18F772F
:100640008BB90000000080E029C0813049F028F01B
:10065000823049F0833051F00CC099B198700AC0D3
:1006600099B1907207C099B1907104C099B194701A
:1006700001C091E0911111C095B1996195B99BB1FB
:1006800090689BB9F0E0EE0FFF1FEE0FFF1FED55D6
:10069000FE4FE80FF11D808108958F5F8430A8F22E
:1006A000EF5FE43008F4B0CF85B1896185B98BB1D3
:1006B00080688BB98FEF0895CF93DF93EC010E9490
:1006C000FC028F3F31F4809301018093000180E0B0
:1006D00010C090910101891309C090910001891700
:1006E00029F088838093000181E003C08093010199
:1006F00080E0DF91CF910895EBEBF1E08081918173
:10070000880F282F220F220F820F282F290F828176
:100710009381880F382F330F330F830F890F90E0A9
:100720003CE3239F800D911D112408950E947C03BA
:100730009093B9018093B801892B61F085B18062F3
:1007400085B988B1806188B988B18F7D88B981E029
:100750008093020108951F93CF93DF93873009F4AC
:100760004BC090E046C0C92FD0E0FE01EE0FFF1F46
:10077000EE0FFF1FEC0FFD1FE85AFE4F3081209156
:10078000BF01321335C0FE01EE0FFF1FEE0FFF1F3A
:10079000EC0FFD1FE85AFE4F2181821329C0182F4C
:1007A000FE01EE0FFF1FEE0FFF1FEC0FFD1FE85ABB
:1007B000FE4F0380F481E02D309709F00995113048
:1007C00051F48091BF01813031F48091B801909152
:1007D000B901892B89F0CE01880F991F880F991FC5
:1007E000C80FD91FC85ADE4F8A818093BF0104C049
:1007F0009F5F9F3008F4B7CFDF91CF911F9108958D
:100800001F920F920FB60F9211248F939F9381E046
:100810008093C1018091B4019091B50101969093AC
:10082000B5018093B4018436910538F01092B5017A
:100830001092B40181E08093C0019F918F910F903D
:100840000FBE0F901F901895CF93DF931F92CDB7D7
:10085000DEB78091C101813021F51092C101CE0136
:1008600001960E945C038130E1F4898190ED980F3C
:100870009A3020F48093B70180E04AC0823479F046
:1008800018F4813451F00DC0833419F0843419F018
:1008900008C083E03DC084E03BC081E039C082E015
:1008A00037C08091C001813061F51092C001809104
:1008B000BF01823091F42091B8013091B901211526
:1008C000310559F0215031093093B9012093B80115
:1008D00091E090930201232BB1F08430B1F4809128
:1008E000B6018F5F8093B60198B180E2892788B9FD
:1008F00081E0809302018091B601853040F086E06E
:1009000007C087E005C085E003C087E001C087E03D
:100910000F90DF91CF910895CF93DF9300D000D057
:1009200000D0CDB7DEB7AC019C01A9E8B8E80E94C1
:100930006505FC01F695E795F295E295EF70EF27D6
:10094000FF70EF272CE32E9FC0012F9F900D1124E5
:10095000481B590B8DECE89F912D11249695969587
:10096000969520E3290F2983990F292F220F220F13
:10097000920FE91BE05DEA839AE39B83489F812DF8
:10098000112486958695869590E3980F9C83880F11
:10099000982F990F990F890F481B405D4D831E8238
:1009A00060E085E00E94BB0165E0CE0101960E94F7
:1009B000A30126960FB6F894DEBF0FBECDBFDF9120
:1009C000CF91089580910201882309F460C01092AC
:1009D00002010E949F018091BF01823039F128F409
:1009E000882341F08130A1F00895833079F184307B
:1009F000E9F1089580E090E00E948C0461E080E0DD
:100A00000E94BB0160E183E091E00E94A301089590
:100A10000E947C030E948C0461E080E00E94BB0184
:100A200060E184E191E00E94A30108958091B80102
:100A30009091B9010E948C0461E080E00E94BB01AA
:100A400060E185E291E00E94A30108958091B801E0
:100A50009091B9010E948C0461E080E00E94BB018A
:100A600060E186E391E00E94A30108958091B601C0
:100A700080FD0DC080E090E00E948C0461E080E089
:100A80000E94BB0160E187E491E00E94A301089508
:100A9000109280008BE08093810081EE94E090932F
:100AA00089008093880082E080936F0008950E94FF
:100AB000D9020E94480578940E946D020E94240485
:100AC0000E94AB030E94E204F9CFA29FB001B39F42
:100AD000C001A39F700D811D1124911DB29F700D47
:0C0AE000811D1124911D0895F894FFCF92
:100AEC00FFFF0120494E4752455345205449454D7F
:100AFC00504F2000413A535441525420423A424FF5
:100B0C005252415200434F43494E414E444F2E2EB8
:100B1C002E202020200050415553412020413A5294
:100B2C0045414E55442000202020212121204649BA
:100B3C004E2021212120200000000183020003020D
:100B4C00A402010001830201010296030102006D5F
:100B5C0002010302A402020203C002020403C00247
:100B6C00020302A402020504CA020301029A020350
:100B7C0002006D02030302A4020406006D020402CB
:100B8C00006D023132334134353642373839432A1D
:040B9C0030234400BE
:00000001FF
