S01300005450322D475255504F32302E737265631F
S11300000C945D000C947A000C947A000C947A00A1
S11300100C947A000C947A000C947A000C947A0074
S11300200C947A000C947A000C947A000C942B04AF
S11300300C947A000C947A000C947A000C947A0054
S11300400C947A000C947A000C947A000C947A0044
S11300500C947A000C947A000C947A000C947A0034
S11300600C947A000C947A002F053D054B0552053B
S113007062057405820590059005001F00000000CC
S11300801F00001F101010101F00001F1818181850
S11300901F00001F1C1C1C1C1F00001F1E1E1E1EF8
S11300A01F00001F1F1F1F1F1F0003070F1F0F0725
S11300B00300181C1E1F1E1C180011241FBECFEFA6
S11300C0D8E0DEBFCDBF11E0A0E0B1E0E8EAFBE09C
S11300D002C005900D92A43FB107D9F722E0A4EF26
S11300E0B1E001C01D92A230B207E1F70E94AF0552
S11300F00C94D2050C94000065B1982F9074492F8C
S113010050E055954795559547955595479555957F
S11301104795982F9078292F30E0022E232F000C3A
S1130120221F330B000C221F331F962F997F492B5C
S1130130242B25B968B1982F9071492F50E055951B
S113014047955595479555954795982F9072292F22
S113015030E0359527953595279535952795962F34
S1130160997F492B242B28B99BB192609BB99BB1F1
S113017091609BB92AE62A95F1F700C09BB19E7F56
S11301809BB99BB19D7F9BB99AE69A95F1F700C004
S113019065B120E1829FC0011124AC014074552750
S11301A05595479555954795559547955595479533
S11301B09C0120783327022E232F000C221F330B9F
S11301C0000C221F331F362F397F432B242B25B9D4
S11301D048B19C012071332735952795359527958E
S11301E03595279580729927959587959595879547
S11301F095958795942F997F292B822B88B98BB15C
S113020082608BB98BB181608BB98AE68A95F1F7EC
S113021000C08BB18E7F8BB98BB18D7F8BB99AE681
S11302209A95F1F700C0089565B1982F9074492FFD
S113023050E055954795559547955595479555954E
S11302404795982F9078292F30E0022E232F000C09
S1130250221F330B000C221F331F962F997F492B2B
S1130260242B25B968B1982F9071492F50E05595EA
S113027047955595479555954795982F9072292FF1
S113028030E0359527953595279535952795962F03
S1130290997F492B242B28B99BB191609BB9EFEC32
S11302A0F7E03197F1F700C000009BB19E7F9BB946
S11302B0EFECF7E03197F1F700C0000065B1F0E131
S11302C08F9FC0011124AC01407455275595479563
S11302D05595479555954795559547959C01207893
S11302E03327022E232F000C221F330B000C221F56
S11302F0331F362F397F432B242B25B948B19C015A
S1130300207133273595279535952795359527956C
S11303108072992795958795959587959595879555
S1130320942F997F292B822B88B98BB181608BB94B
S11303308FEC97E00197F1F700C000008BB18E7F3E
S11303408BB9EFECF7E03197F1F700C000000895A6
S113035081E00E94140108950F931F93CF93DF93BC
S1130360009769F0D62F8C01C0E007C0F801EC0FAC
S1130370F11D80810E947C00CF5FCD17B8F3DF911F
S1130380CF911F910F910895623031F0633031F0B5
S1130390613029F4805C03C08C5E01C08C5A806893
S11303A00E9414010895EF92FF920F931F93CF932D
S11303B0DF937C01862F90E0880F991F880F991F87
S11303C0880F991F8064C0E0D0E00DC0F701EC0FE6
S11303D0FD1F149101E0080F0E941401812F0E9457
S11303E07C002196802FC830D10580F3DF91CF9116
S11303F01F910F91FF90EF900895CF93DF938FE5B6
S11304009AEE0197F1F700C0000085B1897F85B9A4
S113041088B1897F88B91BB884B1866084B987B1F3
S1130420866087B98AB183608AB985B1897F85B9C5
S113043088B1866088B98BB181608BB98FEC97E005
S11304400197F1F700C000008BB18E7F8BB98FEC60
S113045097E00197F1F700C0000085B1897F85B965
S113046088B1866088B98BB181608BB98FEC97E0D5
S11304700197F1F700C000008BB18E7F8BB98FEC30
S113048097E00197F1F700C0000085B1897F85B935
S113049088B1897F846088B98BB181608BB98FEC16
S11304A097E00197F1F700C000008BB18E7F8BB904
S11304B08FEC97E00197F1F700C0000088E20E94FA
S11304C014018CE00E94140160E0C0E00AC0D1E095
S11304D0D60F8C2F90E086589F4F0E94D301C85F9F
S11304E06D2FC034A0F3DF91CF910895EBEFF1E0CD
S11304F010821182128213821092FA011092F90171
S11305001092F80185B18F7D85B988B18F7C88B947
S113051081E08093020108958091FA018430B8F457
S1130520EBEFF1E0918190839281918393819283A7
S11305309091F70120ED290F2383811102C090339C
S113054031F08F5F8093FA0181E080930201089576
S113055085B1806285B988B1806188B981E0809372
S1130560020108958091F8019091F9014E969093BB
S1130570F9018093F80180319E4030F08FE09EE0D5
S11305809093F9018093F80185B1806285B988B1AF
S1130590806188B981E080930201089585B18F7DDF
S11305A085B988B1806188B981E08093020108959A
S11305B085B18F7D85B988B18F7E88B91092F60197
S11305C088B1806288B981E080930201089585B181
S11305D08F7D85B988B18F7E88B981E080930201CF
S11305E00895EBEFF1E010821182128213821092CF
S11305F0FA011092F9011092F80185B18F7D85B945
S113060088B1806188B988B18F7D88B981E0809391
S11306100201089584B1806284B987B1806387B987
S113062085B18F7D85B988B18F7C88B984B18961A2
S113063084B98AB180688AB985B1896185B98BB179
S113064080688BB98AB1837C8AB98BB18C638BB98E
S11306500E94FD010E94A8010895E0E04DC085B10B
S1130660896185B98BB180688BB9E13051F028F08C
S1130670E23059F0E33069F00FC085B18F7E85B95F
S11306800BC085B1877F85B907C085B18E7F85B9D9
S113069003C08BB18F778BB90000000080E029C0C4
S11306A0813049F028F0823049F0833051F00CC099
S11306B099B198700AC099B1907207C099B19071BC
S11306C004C099B1947001C091E0911111C095B129
S11306D0996195B99BB190689BB9F0E0EE0FFF1F4B
S11306E0EE0FFF1FEC51FE4FE80FF11D80810895BE
S11306F08F5F8430A8F2EF5FE43008F4B0CF85B1A7
S1130700896185B98BB180688BB98FEF0895CF93D8
S1130710DF93EC010E942D038F3F31F4809301019C
S11307208093000180E010C090910101891309C0F9
S113073090910001891729F088838093000181E05A
S113074003C08093010180E0DF91CF910895EBEF26
S1130750F1E080819181880F282F220F220F820FD0
S1130760282F290F82819381880F382F330F330F5D
S1130770830F890F90E03CE3239F800D911D11248A
S113078008950E94A7039093F9018093F801892B9F
S113079061F085B1806285B988B1806188B988B11A
S11307A08F7D88B981E08093020108951F93CF93D0
S11307B0DF93873009F44BC090E046C0C92FD0E0E6
S11307C0FE01EE0FFF1FEE0FFF1FEC0FFD1FE85A97
S11307D0FE4F30812091FF01321335C0FE01EE0F30
S11307E0FF1FEE0FFF1FEC0FFD1FE85AFE4F218184
S11307F0821329C0182FFE01EE0FFF1FEE0FFF1FFB
S1130800EC0FFD1FE85AFE4F0380F481E02D309772
S113081009F00995113051F48091FF01813031F4D0
S11308208091F8019091F901892B89F0CE01880F0C
S1130830991F880F991FC80FD91FC85ADE4F8A8184
S11308408093FF0104C09F5F9C3108F4B7CFDF9110
S1130850CF911F9108951F920F920FB60F921124FA
S11308608F939F9381E0809301028091F401909192
S1130870F50101969093F5018093F4018436910576
S113088038F01092F5011092F40181E08093000297
S11308909F918F910F900FBE0F901F901895CF933B
S11308A0DF931F92CDB7DEB780910102813021F52D
S11308B010920102CE0101960E9487038130E1F477
S11308C0898190ED980F9A3020F48093F70180E0AD
S11308D04AC0823479F018F4813451F00DC0833465
S11308E019F0843419F008C083E03DC084E03BC0B3
S11308F081E039C082E037C080910002813061F527
S1130900109200028091FF01823091F42091F8014D
S11309103091F9012115310559F0215031093093F5
S1130920F9012093F80191E090930201232BB1F097
S11309308430B1F48091F6018F5F8093F60198B111
S113094080E2892788B981E0809302018091F601D1
S1130950853040F086E007C087E005C085E003C02D
S113096087E001C087E00F90DF91CF910895CF9386
S1130970DF9300D000D000D0CDB7DEB7AC0140315A
S11309808EE0580740F08FE09EE09093F901809349
S1130990F8014FE05EE09A01A9E8B8E80E94C305B7
S11309A0FC01F695E795F295E295EF70EF27FF705D
S11309B0EF272CE32E9FC0012F9F900D1124481B7D
S11309C0590B8DECE89F912D11249695969596954B
S11309D020E3290F2983990F292F220F220F920F29
S11309E0E91BE05DEA839AE39B83489F812D1124F0
S11309F086958695869590E3980F9C83880F982F0B
S1130A00990F990F890F481B405D4D831E8260E04A
S1130A1085E00E94C40165E0CE0101960E94AC010C
S1130A2026960FB6F894DEBF0FBECDBFDF91CF91EF
S1130A30089580910201882309F481C01092020173
S1130A400E94A801E091FF018E2F90E0893091056A
S1130A5008F075C0FC01EC5CFF4F0C94BD0580E010
S1130A6090E00E94B70461E080E00E94C40160E16C
S1130A7083E091E00E94AC0108950E94A7030E94C4
S1130A80B70461E080E00E94C40160E184E191E088
S1130A900E94AC0108958091F8019091F9010E949F
S1130AA0B70408958091F8019091F9010E94B70468
S1130AB061E080E00E94C40160E185E291E00E946F
S1130AC0AC0108958091F60180FD39C080E090E08A
S1130AD00E94B70461E080E00E94C40160E186E303
S1130AE091E00E94AC01089580E090E00E94B70478
S1130AF061E080E00E94C40160E187E491E00E942B
S1130B00AC0108950E94A7030E94B70461E080E04D
S1130B100E94C40160E187E491E00E94AC01089561
S1130B208091F8019091F9010E94B70461E080E09E
S1130B300E94C40160E187E491E00E94AC01089541
S1130B40109280008BE08093810083EC99E0909375
S1130B5089008093880082E080936F0008950E944A
S1130B600A030E94A00578940E9476020E944F0412
S1130B700E94D6030E941905F9CFEE0FFF1F0590BE
S1130B80F491E02D0994A29FB001B39FC001A39FEB
S1130B90700D811D1124911DB29F700D811D1124B2
S10B0BA0911D0895F894FFCFA4
S1130BA8FFFF0120494E4752455345205449454DBE
S1130BB8504F2000413A535441525420423A424F34
S1130BC8525241520050415553412020413A524516
S1130BD8414E5544200020202020202046494E2004
S1130BE820202020202000205055455254412041E7
S1130BF842494552544120000000018C020003027E
S1130C08B202000405CE020100018C02010102C1F6
S1130C18030102007602010302B202010406CE02B5
S1130C28020203CE02020407CE02020302B2020247
S1130C380504D802030102A8020302007602030392
S1130C4802B202030408CE0204060076020402007B
S1130C587602040405CE0205040076020500068C1B
S1130C6802060401E702060205F1020600068C02E8
S1130C78070402A802070205F102080403CE0208C9
S1130C880205F102313233413435364237383943BB
S1070C982A30234493
S9030000FC
